{
  "_format": "hh-sol-artifact-1",
  "contractName": "BaseToken",
  "sourceName": "contracts/BaseToken.sol",
  "abi": [
    {
      "inputs": [],
      "stateMutability": "nonpayable",
      "type": "constructor"
    },
    {
      "inputs": [
        {
          "internalType": "address",
          "name": "spender",
          "type": "address"
        },
        {
          "internalType": "uint256",
          "name": "allowance",
          "type": "uint256"
        },
        {
          "internalType": "uint256",
          "name": "needed",
          "type": "uint256"
        }
      ],
      "name": "ERC20InsufficientAllowance",
      "type": "error"
    },
    {
      "inputs": [
        {
          "internalType": "address",
          "name": "sender",
          "type": "address"
        },
        {
          "internalType": "uint256",
          "name": "balance",
          "type": "uint256"
        },
        {
          "internalType": "uint256",
          "name": "needed",
          "type": "uint256"
        }
      ],
      "name": "ERC20InsufficientBalance",
      "type": "error"
    },
    {
      "inputs": [
        {
          "internalType": "address",
          "name": "approver",
          "type": "address"
        }
      ],
      "name": "ERC20InvalidApprover",
      "type": "error"
    },
    {
      "inputs": [
        {
          "internalType": "address",
          "name": "receiver",
          "type": "address"
        }
      ],
      "name": "ERC20InvalidReceiver",
      "type": "error"
    },
    {
      "inputs": [
        {
          "internalType": "address",
          "name": "sender",
          "type": "address"
        }
      ],
      "name": "ERC20InvalidSender",
      "type": "error"
    },
    {
      "inputs": [
        {
          "internalType": "address",
          "name": "spender",
          "type": "address"
        }
      ],
      "name": "ERC20InvalidSpender",
      "type": "error"
    },
    {
      "inputs": [
        {
          "internalType": "address",
          "name": "owner",
          "type": "address"
        }
      ],
      "name": "OwnableInvalidOwner",
      "type": "error"
    },
    {
      "inputs": [
        {
          "internalType": "address",
          "name": "account",
          "type": "address"
        }
      ],
      "name": "OwnableUnauthorizedAccount",
      "type": "error"
    },
    {
      "anonymous": false,
      "inputs": [
        {
          "indexed": true,
          "internalType": "address",
          "name": "owner",
          "type": "address"
        },
        {
          "indexed": true,
          "internalType": "address",
          "name": "spender",
          "type": "address"
        },
        {
          "indexed": false,
          "internalType": "uint256",
          "name": "value",
          "type": "uint256"
        }
      ],
      "name": "Approval",
      "type": "event"
    },
    {
      "anonymous": false,
      "inputs": [
        {
          "indexed": true,
          "internalType": "address",
          "name": "previousOwner",
          "type": "address"
        },
        {
          "indexed": true,
          "internalType": "address",
          "name": "newOwner",
          "type": "address"
        }
      ],
      "name": "OwnershipTransferred",
      "type": "event"
    },
    {
      "anonymous": false,
      "inputs": [
        {
          "indexed": true,
          "internalType": "address",
          "name": "from",
          "type": "address"
        },
        {
          "indexed": true,
          "internalType": "address",
          "name": "to",
          "type": "address"
        },
        {
          "indexed": false,
          "internalType": "uint256",
          "name": "value",
          "type": "uint256"
        }
      ],
      "name": "Transfer",
      "type": "event"
    },
    {
      "inputs": [],
      "name": "MAX_SUPPLY",
      "outputs": [
        {
          "internalType": "uint256",
          "name": "",
          "type": "uint256"
        }
      ],
      "stateMutability": "view",
      "type": "function"
    },
    {
      "inputs": [],
      "name": "MINT_AMOUNT",
      "outputs": [
        {
          "internalType": "uint256",
          "name": "",
          "type": "uint256"
        }
      ],
      "stateMutability": "view",
      "type": "function"
    },
    {
      "inputs": [],
      "name": "MINT_PRICE",
      "outputs": [
        {
          "internalType": "uint256",
          "name": "",
          "type": "uint256"
        }
      ],
      "stateMutability": "view",
      "type": "function"
    },
    {
      "inputs": [
        {
          "internalType": "address",
          "name": "owner",
          "type": "address"
        },
        {
          "internalType": "address",
          "name": "spender",
          "type": "address"
        }
      ],
      "name": "allowance",
      "outputs": [
        {
          "internalType": "uint256",
          "name": "",
          "type": "uint256"
        }
      ],
      "stateMutability": "view",
      "type": "function"
    },
    {
      "inputs": [
        {
          "internalType": "address",
          "name": "spender",
          "type": "address"
        },
        {
          "internalType": "uint256",
          "name": "value",
          "type": "uint256"
        }
      ],
      "name": "approve",
      "outputs": [
        {
          "internalType": "bool",
          "name": "",
          "type": "bool"
        }
      ],
      "stateMutability": "nonpayable",
      "type": "function"
    },
    {
      "inputs": [
        {
          "internalType": "address",
          "name": "account",
          "type": "address"
        }
      ],
      "name": "balanceOf",
      "outputs": [
        {
          "internalType": "uint256",
          "name": "",
          "type": "uint256"
        }
      ],
      "stateMutability": "view",
      "type": "function"
    },
    {
      "inputs": [
        {
          "internalType": "uint256",
          "name": "value",
          "type": "uint256"
        }
      ],
      "name": "burn",
      "outputs": [],
      "stateMutability": "nonpayable",
      "type": "function"
    },
    {
      "inputs": [
        {
          "internalType": "address",
          "name": "account",
          "type": "address"
        },
        {
          "internalType": "uint256",
          "name": "value",
          "type": "uint256"
        }
      ],
      "name": "burnFrom",
      "outputs": [],
      "stateMutability": "nonpayable",
      "type": "function"
    },
    {
      "inputs": [],
      "name": "decimals",
      "outputs": [
        {
          "internalType": "uint8",
          "name": "",
          "type": "uint8"
        }
      ],
      "stateMutability": "pure",
      "type": "function"
    },
    {
      "inputs": [
        {
          "internalType": "address",
          "name": "",
          "type": "address"
        }
      ],
      "name": "hasMinted",
      "outputs": [
        {
          "internalType": "bool",
          "name": "",
          "type": "bool"
        }
      ],
      "stateMutability": "view",
      "type": "function"
    },
    {
      "inputs": [
        {
          "internalType": "address",
          "name": "to",
          "type": "address"
        },
        {
          "internalType": "uint256",
          "name": "amount",
          "type": "uint256"
        }
      ],
      "name": "mint",
      "outputs": [],
      "stateMutability": "nonpayable",
      "type": "function"
    },
    {
      "inputs": [],
      "name": "mintRandom",
      "outputs": [],
      "stateMutability": "payable",
      "type": "function"
    },
    {
      "inputs": [],
      "name": "name",
      "outputs": [
        {
          "internalType": "string",
          "name": "",
          "type": "string"
        }
      ],
      "stateMutability": "view",
      "type": "function"
    },
    {
      "inputs": [],
      "name": "owner",
      "outputs": [
        {
          "internalType": "address",
          "name": "",
          "type": "address"
        }
      ],
      "stateMutability": "view",
      "type": "function"
    },
    {
      "inputs": [],
      "name": "renounceOwnership",
      "outputs": [],
      "stateMutability": "nonpayable",
      "type": "function"
    },
    {
      "inputs": [],
      "name": "symbol",
      "outputs": [
        {
          "internalType": "string",
          "name": "",
          "type": "string"
        }
      ],
      "stateMutability": "view",
      "type": "function"
    },
    {
      "inputs": [],
      "name": "totalSupply",
      "outputs": [
        {
          "internalType": "uint256",
          "name": "",
          "type": "uint256"
        }
      ],
      "stateMutability": "view",
      "type": "function"
    },
    {
      "inputs": [
        {
          "internalType": "address",
          "name": "to",
          "type": "address"
        },
        {
          "internalType": "uint256",
          "name": "value",
          "type": "uint256"
        }
      ],
      "name": "transfer",
      "outputs": [
        {
          "internalType": "bool",
          "name": "",
          "type": "bool"
        }
      ],
      "stateMutability": "nonpayable",
      "type": "function"
    },
    {
      "inputs": [
        {
          "internalType": "address",
          "name": "from",
          "type": "address"
        },
        {
          "internalType": "address",
          "name": "to",
          "type": "address"
        },
        {
          "internalType": "uint256",
          "name": "value",
          "type": "uint256"
        }
      ],
      "name": "transferFrom",
      "outputs": [
        {
          "internalType": "bool",
          "name": "",
          "type": "bool"
        }
      ],
      "stateMutability": "nonpayable",
      "type": "function"
    },
    {
      "inputs": [
        {
          "internalType": "address",
          "name": "newOwner",
          "type": "address"
        }
      ],
      "name": "transferOwnership",
      "outputs": [],
      "stateMutability": "nonpayable",
      "type": "function"
    },
    {
      "inputs": [],
      "name": "withdraw",
      "outputs": [],
      "stateMutability": "nonpayable",
      "type": "function"
    }
  ],
  "bytecode": "0x60806040523480156200001157600080fd5b50336040518060400160405280601081526020016f293ab73234b737a93ab7102a37b5b2b760811b8152506040518060400160405280600481526020016344494e4f60e01b81525081600390816200006a91906200033c565b5060046200007982826200033c565b5050506001600160a01b038116620000ac57604051631e4fbdf760e01b8152600060048201526024015b60405180910390fd5b620000b781620000d4565b50620000ce3369021e19e0c9bab240000062000126565b62000430565b600580546001600160a01b038381166001600160a01b0319831681179093556040519116919082907f8be0079c531659141344cd1fd0a4f28419497f9722a3daafe3b4186f6b6457e090600090a35050565b6001600160a01b038216620001525760405163ec442f0560e01b815260006004820152602401620000a3565b620001606000838362000164565b5050565b6001600160a01b0383166200019357806002600082825462000187919062000408565b90915550620002079050565b6001600160a01b03831660009081526020819052604090205481811015620001e85760405163391434e360e21b81526001600160a01b03851660048201526024810182905260448101839052606401620000a3565b6001600160a01b03841660009081526020819052604090209082900390555b6001600160a01b038216620002255760028054829003905562000244565b6001600160a01b03821660009081526020819052604090208054820190555b816001600160a01b0316836001600160a01b03167fddf252ad1be2c89b69c2b068fc378daa952ba7f163c4a11628f55a4df523b3ef836040516200028a91815260200190565b60405180910390a3505050565b634e487b7160e01b600052604160045260246000fd5b600181811c90821680620002c257607f821691505b602082108103620002e357634e487b7160e01b600052602260045260246000fd5b50919050565b601f8211156200033757600081815260208120601f850160051c81016020861015620003125750805b601f850160051c820191505b8181101562000333578281556001016200031e565b5050505b505050565b81516001600160401b0381111562000358576200035862000297565b6200037081620003698454620002ad565b84620002e9565b602080601f831160018114620003a857600084156200038f5750858301515b600019600386901b1c1916600185901b17855562000333565b600085815260208120601f198616915b82811015620003d957888601518255948401946001909101908401620003b8565b5085821015620003f85787850151600019600388901b60f8161c191681555b5050505050600190811b01905550565b808201808211156200042a57634e487b7160e01b600052601160045260246000fd5b92915050565b610cf480620004406000396000f3fe60806040526004361061012a5760003560e01c80635427789c116100ab57806395d89b411161006f57806395d89b411461033a578063a9059cbb1461034f578063b155d7fa1461036f578063c002d23d14610377578063dd62ed3e14610392578063f2fde38b146103d857600080fd5b80635427789c1461028a57806370a08231146102a7578063715018a6146102dd57806379cc6790146102f25780638da5cb5b1461031257600080fd5b806332cb6b0c116100f257806332cb6b0c146101e557806338e21cce146102035780633ccfd60b1461023357806340c10f191461024a57806342966c681461026a57600080fd5b806306fdde031461012f578063095ea7b31461015a57806318160ddd1461018a57806323b872dd146101a9578063313ce567146101c9575b600080fd5b34801561013b57600080fd5b506101446103f8565b6040516101519190610b25565b60405180910390f35b34801561016657600080fd5b5061017a610175366004610b8f565b61048a565b6040519015158152602001610151565b34801561019657600080fd5b506002545b604051908152602001610151565b3480156101b557600080fd5b5061017a6101c4366004610bb9565b6104a4565b3480156101d557600080fd5b5060405160128152602001610151565b3480156101f157600080fd5b5061019b69d3c21bcecceda100000081565b34801561020f57600080fd5b5061017a61021e366004610bf5565b60066020526000908152604090205460ff1681565b34801561023f57600080fd5b506102486104c8565b005b34801561025657600080fd5b50610248610265366004610b8f565b61050c565b34801561027657600080fd5b50610248610285366004610c17565b610589565b34801561029657600080fd5b5061019b68056bc75e2d6310000081565b3480156102b357600080fd5b5061019b6102c2366004610bf5565b6001600160a01b031660009081526020819052604090205490565b3480156102e957600080fd5b50610248610593565b3480156102fe57600080fd5b5061024861030d366004610b8f565b6105a7565b34801561031e57600080fd5b506005546040516001600160a01b039091168152602001610151565b34801561034657600080fd5b506101446105bc565b34801561035b57600080fd5b5061017a61036a366004610b8f565b6105cb565b6102486105d9565b34801561038357600080fd5b5061019b66038d7ea4c6800081565b34801561039e57600080fd5b5061019b6103ad366004610c30565b6001600160a01b03918216600090815260016020908152604080832093909416825291909152205490565b3480156103e457600080fd5b506102486103f3366004610bf5565b610710565b60606003805461040790610c63565b80601f016020809104026020016040519081016040528092919081815260200182805461043390610c63565b80156104805780601f1061045557610100808354040283529160200191610480565b820191906000526020600020905b81548152906001019060200180831161046357829003601f168201915b5050505050905090565b60003361049881858561074b565b60019150505b92915050565b6000336104b285828561075d565b6104bd8585856107dc565b506001949350505050565b6104d061083b565b6005546040516001600160a01b03909116904780156108fc02916000818181858888f19350505050158015610509573d6000803e3d6000fd5b50565b61051461083b565b69d3c21bcecceda10000008161052960025490565b6105339190610c9d565b111561057b5760405162461bcd60e51b815260206004820152601260248201527113585e081cdd5c1c1b1e481c995858da195960721b60448201526064015b60405180910390fd5b6105858282610868565b5050565b610509338261089e565b61059b61083b565b6105a560006108d4565b565b6105b282338361075d565b610585828261089e565b60606004805461040790610c63565b6000336104988185856107dc565b66038d7ea4c680003410156106275760405162461bcd60e51b8152602060048201526014602482015273125b9cdd59999a58da595b9d081c185e5b595b9d60621b6044820152606401610572565b3360009081526006602052604090205460ff16156106785760405162461bcd60e51b815260206004820152600e60248201526d105b1c9958591e481b5a5b9d195960921b6044820152606401610572565b69d3c21bcecceda100000068056bc75e2d6310000061069660025490565b6106a09190610c9d565b11156106e35760405162461bcd60e51b815260206004820152601260248201527113585e081cdd5c1c1b1e481c995858da195960721b6044820152606401610572565b336000818152600660205260409020805460ff191660011790556105a59068056bc75e2d63100000610868565b61071861083b565b6001600160a01b03811661074257604051631e4fbdf760e01b815260006004820152602401610572565b610509816108d4565b6107588383836001610926565b505050565b6001600160a01b038381166000908152600160209081526040808320938616835292905220546000198110156107d657818110156107c757604051637dc7a0d960e11b81526001600160a01b03841660048201526024810182905260448101839052606401610572565b6107d684848484036000610926565b50505050565b6001600160a01b03831661080657604051634b637e8f60e11b815260006004820152602401610572565b6001600160a01b0382166108305760405163ec442f0560e01b815260006004820152602401610572565b6107588383836109fb565b6005546001600160a01b031633146105a55760405163118cdaa760e01b8152336004820152602401610572565b6001600160a01b0382166108925760405163ec442f0560e01b815260006004820152602401610572565b610585600083836109fb565b6001600160a01b0382166108c857604051634b637e8f60e11b815260006004820152602401610572565b610585826000836109fb565b600580546001600160a01b038381166001600160a01b0319831681179093556040519116919082907f8be0079c531659141344cd1fd0a4f28419497f9722a3daafe3b4186f6b6457e090600090a35050565b6001600160a01b0384166109505760405163e602df0560e01b815260006004820152602401610572565b6001600160a01b03831661097a57604051634a1406b160e11b815260006004820152602401610572565b6001600160a01b03808516600090815260016020908152604080832093871683529290522082905580156107d657826001600160a01b0316846001600160a01b03167f8c5be1e5ebec7d5bd14f71427d1e84f3dd0314c0f7b2291e5b200ac8c7c3b925846040516109ed91815260200190565b60405180910390a350505050565b6001600160a01b038316610a26578060026000828254610a1b9190610c9d565b90915550610a989050565b6001600160a01b03831660009081526020819052604090205481811015610a795760405163391434e360e21b81526001600160a01b03851660048201526024810182905260448101839052606401610572565b6001600160a01b03841660009081526020819052604090209082900390555b6001600160a01b038216610ab457600280548290039055610ad3565b6001600160a01b03821660009081526020819052604090208054820190555b816001600160a01b0316836001600160a01b03167fddf252ad1be2c89b69c2b068fc378daa952ba7f163c4a11628f55a4df523b3ef83604051610b1891815260200190565b60405180910390a3505050565b600060208083528351808285015260005b81811015610b5257858101830151858201604001528201610b36565b506000604082860101526040601f19601f8301168501019250505092915050565b80356001600160a01b0381168114610b8a57600080fd5b919050565b60008060408385031215610ba257600080fd5b610bab83610b73565b946020939093013593505050565b600080600060608486031215610bce57600080fd5b610bd784610b73565b9250610be560208501610b73565b9150604084013590509250925092565b600060208284031215610c0757600080fd5b610c1082610b73565b9392505050565b600060208284031215610c2957600080fd5b5035919050565b60008060408385031215610c4357600080fd5b610c4c83610b73565b9150610c5a60208401610b73565b90509250929050565b600181811c90821680610c7757607f821691505b602082108103610c9757634e487b7160e01b600052602260045260246000fd5b50919050565b8082018082111561049e57634e487b7160e01b600052601160045260246000fdfea264697066735822122032a3cff58e4a0778913dcc6e6f49ef2241460a1759779489a4a025782e71cccc64736f6c63430008140033",
  "linkReferences": {},
  "deployedLinkReferences": {}
}