{
  "_format": "hh-sol-artifact-1",
  "contractName": "BaseNFT",
  "sourceName": "contracts/BaseNFT.sol",
  "abi": [
    {
      "inputs": [],
      "stateMutability": "nonpayable",
      "type": "constructor"
    },
    {
      "inputs": [
        {
          "internalType": "address",
          "name": "sender",
          "type": "address"
        },
        {
          "internalType": "uint256",
          "name": "tokenId",
          "type": "uint256"
        },
        {
          "internalType": "address",
          "name": "owner",
          "type": "address"
        }
      ],
      "name": "ERC721IncorrectOwner",
      "type": "error"
    },
    {
      "inputs": [
        {
          "internalType": "address",
          "name": "operator",
          "type": "address"
        },
        {
          "internalType": "uint256",
          "name": "tokenId",
          "type": "uint256"
        }
      ],
      "name": "ERC721InsufficientApproval",
      "type": "error"
    },
    {
      "inputs": [
        {
          "internalType": "address",
          "name": "approver",
          "type": "address"
        }
      ],
      "name": "ERC721InvalidApprover",
      "type": "error"
    },
    {
      "inputs": [
        {
          "internalType": "address",
          "name": "operator",
          "type": "address"
        }
      ],
      "name": "ERC721InvalidOperator",
      "type": "error"
    },
    {
      "inputs": [
        {
          "internalType": "address",
          "name": "owner",
          "type": "address"
        }
      ],
      "name": "ERC721InvalidOwner",
      "type": "error"
    },
    {
      "inputs": [
        {
          "internalType": "address",
          "name": "receiver",
          "type": "address"
        }
      ],
      "name": "ERC721InvalidReceiver",
      "type": "error"
    },
    {
      "inputs": [
        {
          "internalType": "address",
          "name": "sender",
          "type": "address"
        }
      ],
      "name": "ERC721InvalidSender",
      "type": "error"
    },
    {
      "inputs": [
        {
          "internalType": "uint256",
          "name": "tokenId",
          "type": "uint256"
        }
      ],
      "name": "ERC721NonexistentToken",
      "type": "error"
    },
    {
      "inputs": [
        {
          "internalType": "address",
          "name": "owner",
          "type": "address"
        }
      ],
      "name": "OwnableInvalidOwner",
      "type": "error"
    },
    {
      "inputs": [
        {
          "internalType": "address",
          "name": "account",
          "type": "address"
        }
      ],
      "name": "OwnableUnauthorizedAccount",
      "type": "error"
    },
    {
      "anonymous": false,
      "inputs": [
        {
          "indexed": true,
          "internalType": "address",
          "name": "owner",
          "type": "address"
        },
        {
          "indexed": true,
          "internalType": "address",
          "name": "approved",
          "type": "address"
        },
        {
          "indexed": true,
          "internalType": "uint256",
          "name": "tokenId",
          "type": "uint256"
        }
      ],
      "name": "Approval",
      "type": "event"
    },
    {
      "anonymous": false,
      "inputs": [
        {
          "indexed": true,
          "internalType": "address",
          "name": "owner",
          "type": "address"
        },
        {
          "indexed": true,
          "internalType": "address",
          "name": "operator",
          "type": "address"
        },
        {
          "indexed": false,
          "internalType": "bool",
          "name": "approved",
          "type": "bool"
        }
      ],
      "name": "ApprovalForAll",
      "type": "event"
    },
    {
      "anonymous": false,
      "inputs": [
        {
          "indexed": false,
          "internalType": "uint256",
          "name": "_fromTokenId",
          "type": "uint256"
        },
        {
          "indexed": false,
          "internalType": "uint256",
          "name": "_toTokenId",
          "type": "uint256"
        }
      ],
      "name": "BatchMetadataUpdate",
      "type": "event"
    },
    {
      "anonymous": false,
      "inputs": [
        {
          "indexed": false,
          "internalType": "uint256",
          "name": "_tokenId",
          "type": "uint256"
        }
      ],
      "name": "MetadataUpdate",
      "type": "event"
    },
    {
      "anonymous": false,
      "inputs": [
        {
          "indexed": true,
          "internalType": "address",
          "name": "previousOwner",
          "type": "address"
        },
        {
          "indexed": true,
          "internalType": "address",
          "name": "newOwner",
          "type": "address"
        }
      ],
      "name": "OwnershipTransferred",
      "type": "event"
    },
    {
      "anonymous": false,
      "inputs": [
        {
          "indexed": true,
          "internalType": "address",
          "name": "from",
          "type": "address"
        },
        {
          "indexed": true,
          "internalType": "address",
          "name": "to",
          "type": "address"
        },
        {
          "indexed": true,
          "internalType": "uint256",
          "name": "tokenId",
          "type": "uint256"
        }
      ],
      "name": "Transfer",
      "type": "event"
    },
    {
      "inputs": [],
      "name": "MAX_SUPPLY",
      "outputs": [
        {
          "internalType": "uint256",
          "name": "",
          "type": "uint256"
        }
      ],
      "stateMutability": "view",
      "type": "function"
    },
    {
      "inputs": [],
      "name": "MINT_PRICE",
      "outputs": [
        {
          "internalType": "uint256",
          "name": "",
          "type": "uint256"
        }
      ],
      "stateMutability": "view",
      "type": "function"
    },
    {
      "inputs": [
        {
          "internalType": "address",
          "name": "to",
          "type": "address"
        },
        {
          "internalType": "uint256",
          "name": "tokenId",
          "type": "uint256"
        }
      ],
      "name": "approve",
      "outputs": [],
      "stateMutability": "nonpayable",
      "type": "function"
    },
    {
      "inputs": [
        {
          "internalType": "address",
          "name": "owner",
          "type": "address"
        }
      ],
      "name": "balanceOf",
      "outputs": [
        {
          "internalType": "uint256",
          "name": "",
          "type": "uint256"
        }
      ],
      "stateMutability": "view",
      "type": "function"
    },
    {
      "inputs": [
        {
          "internalType": "uint256",
          "name": "tokenId",
          "type": "uint256"
        }
      ],
      "name": "getApproved",
      "outputs": [
        {
          "internalType": "address",
          "name": "",
          "type": "address"
        }
      ],
      "stateMutability": "view",
      "type": "function"
    },
    {
      "inputs": [
        {
          "internalType": "address",
          "name": "owner",
          "type": "address"
        },
        {
          "internalType": "address",
          "name": "operator",
          "type": "address"
        }
      ],
      "name": "isApprovedForAll",
      "outputs": [
        {
          "internalType": "bool",
          "name": "",
          "type": "bool"
        }
      ],
      "stateMutability": "view",
      "type": "function"
    },
    {
      "inputs": [
        {
          "internalType": "address",
          "name": "to",
          "type": "address"
        }
      ],
      "name": "mintRandom",
      "outputs": [],
      "stateMutability": "payable",
      "type": "function"
    },
    {
      "inputs": [],
      "name": "name",
      "outputs": [
        {
          "internalType": "string",
          "name": "",
          "type": "string"
        }
      ],
      "stateMutability": "view",
      "type": "function"
    },
    {
      "inputs": [],
      "name": "owner",
      "outputs": [
        {
          "internalType": "address",
          "name": "",
          "type": "address"
        }
      ],
      "stateMutability": "view",
      "type": "function"
    },
    {
      "inputs": [
        {
          "internalType": "uint256",
          "name": "tokenId",
          "type": "uint256"
        }
      ],
      "name": "ownerOf",
      "outputs": [
        {
          "internalType": "address",
          "name": "",
          "type": "address"
        }
      ],
      "stateMutability": "view",
      "type": "function"
    },
    {
      "inputs": [],
      "name": "renounceOwnership",
      "outputs": [],
      "stateMutability": "nonpayable",
      "type": "function"
    },
    {
      "inputs": [
        {
          "internalType": "address",
          "name": "to",
          "type": "address"
        },
        {
          "internalType": "string",
          "name": "uri",
          "type": "string"
        }
      ],
      "name": "safeMint",
      "outputs": [],
      "stateMutability": "payable",
      "type": "function"
    },
    {
      "inputs": [
        {
          "internalType": "address",
          "name": "from",
          "type": "address"
        },
        {
          "internalType": "address",
          "name": "to",
          "type": "address"
        },
        {
          "internalType": "uint256",
          "name": "tokenId",
          "type": "uint256"
        }
      ],
      "name": "safeTransferFrom",
      "outputs": [],
      "stateMutability": "nonpayable",
      "type": "function"
    },
    {
      "inputs": [
        {
          "internalType": "address",
          "name": "from",
          "type": "address"
        },
        {
          "internalType": "address",
          "name": "to",
          "type": "address"
        },
        {
          "internalType": "uint256",
          "name": "tokenId",
          "type": "uint256"
        },
        {
          "internalType": "bytes",
          "name": "data",
          "type": "bytes"
        }
      ],
      "name": "safeTransferFrom",
      "outputs": [],
      "stateMutability": "nonpayable",
      "type": "function"
    },
    {
      "inputs": [
        {
          "internalType": "address",
          "name": "operator",
          "type": "address"
        },
        {
          "internalType": "bool",
          "name": "approved",
          "type": "bool"
        }
      ],
      "name": "setApprovalForAll",
      "outputs": [],
      "stateMutability": "nonpayable",
      "type": "function"
    },
    {
      "inputs": [
        {
          "internalType": "bytes4",
          "name": "interfaceId",
          "type": "bytes4"
        }
      ],
      "name": "supportsInterface",
      "outputs": [
        {
          "internalType": "bool",
          "name": "",
          "type": "bool"
        }
      ],
      "stateMutability": "view",
      "type": "function"
    },
    {
      "inputs": [],
      "name": "symbol",
      "outputs": [
        {
          "internalType": "string",
          "name": "",
          "type": "string"
        }
      ],
      "stateMutability": "view",
      "type": "function"
    },
    {
      "inputs": [
        {
          "internalType": "uint256",
          "name": "tokenId",
          "type": "uint256"
        }
      ],
      "name": "tokenURI",
      "outputs": [
        {
          "internalType": "string",
          "name": "",
          "type": "string"
        }
      ],
      "stateMutability": "view",
      "type": "function"
    },
    {
      "inputs": [
        {
          "internalType": "address",
          "name": "from",
          "type": "address"
        },
        {
          "internalType": "address",
          "name": "to",
          "type": "address"
        },
        {
          "internalType": "uint256",
          "name": "tokenId",
          "type": "uint256"
        }
      ],
      "name": "transferFrom",
      "outputs": [],
      "stateMutability": "nonpayable",
      "type": "function"
    },
    {
      "inputs": [
        {
          "internalType": "address",
          "name": "newOwner",
          "type": "address"
        }
      ],
      "name": "transferOwnership",
      "outputs": [],
      "stateMutability": "nonpayable",
      "type": "function"
    },
    {
      "inputs": [],
      "name": "withdraw",
      "outputs": [],
      "stateMutability": "nonpayable",
      "type": "function"
    }
  ],
  "bytecode": "0x60806040523480156200001157600080fd5b50336040518060400160405280600e81526020016d149d5b991a5b9bd49d5b8813919560921b8152506040518060400160405280600481526020016344494e4f60e01b8152508160009081620000689190620001b2565b506001620000778282620001b2565b5050506001600160a01b038116620000a957604051631e4fbdf760e01b81526000600482015260240160405180910390fd5b620000b481620000bb565b506200027e565b600780546001600160a01b038381166001600160a01b0319831681179093556040519116919082907f8be0079c531659141344cd1fd0a4f28419497f9722a3daafe3b4186f6b6457e090600090a35050565b634e487b7160e01b600052604160045260246000fd5b600181811c908216806200013857607f821691505b6020821081036200015957634e487b7160e01b600052602260045260246000fd5b50919050565b601f821115620001ad57600081815260208120601f850160051c81016020861015620001885750805b601f850160051c820191505b81811015620001a95782815560010162000194565b5050505b505050565b81516001600160401b03811115620001ce57620001ce6200010d565b620001e681620001df845462000123565b846200015f565b602080601f8311600181146200021e5760008415620002055750858301515b600019600386901b1c1916600185901b178555620001a9565b600085815260208120601f198616915b828110156200024f578886015182559484019460019091019084016200022e565b50858210156200026e5787850151600019600388901b60f8161c191681555b5050505050600190811b01905550565b611986806200028e6000396000f3fe60806040526004361061012a5760003560e01c8063715018a6116100ab578063c002d23d1161006f578063c002d23d14610321578063c87b56dd1461033c578063d1cea4ec1461035c578063d204c45e1461036f578063e985e9c514610382578063f2fde38b146103a257600080fd5b8063715018a6146102995780638da5cb5b146102ae57806395d89b41146102cc578063a22cb465146102e1578063b88d4fde1461030157600080fd5b806332cb6b0c116100f257806332cb6b0c146102005780633ccfd60b1461022457806342842e0e146102395780636352211e1461025957806370a082311461027957600080fd5b806301ffc9a71461012f57806306fdde0314610164578063081812fc14610186578063095ea7b3146101be57806323b872dd146101e0575b600080fd5b34801561013b57600080fd5b5061014f61014a36600461138e565b6103c2565b60405190151581526020015b60405180910390f35b34801561017057600080fd5b506101796103d3565b60405161015b91906113fb565b34801561019257600080fd5b506101a66101a136600461140e565b610465565b6040516001600160a01b03909116815260200161015b565b3480156101ca57600080fd5b506101de6101d9366004611443565b61048e565b005b3480156101ec57600080fd5b506101de6101fb36600461146d565b61049d565b34801561020c57600080fd5b506102166103e881565b60405190815260200161015b565b34801561023057600080fd5b506101de61052d565b34801561024557600080fd5b506101de61025436600461146d565b610571565b34801561026557600080fd5b506101a661027436600461140e565b610591565b34801561028557600080fd5b506102166102943660046114a9565b61059c565b3480156102a557600080fd5b506101de6105e4565b3480156102ba57600080fd5b506007546001600160a01b03166101a6565b3480156102d857600080fd5b506101796105f8565b3480156102ed57600080fd5b506101de6102fc3660046114c4565b610607565b34801561030d57600080fd5b506101de61031c36600461158c565b610612565b34801561032d57600080fd5b5061021666038d7ea4c6800081565b34801561034857600080fd5b5061017961035736600461140e565b61062a565b6101de61036a3660046114a9565b610635565b6101de61037d366004611608565b610703565b34801561038e57600080fd5b5061014f61039d36600461166a565b6107c4565b3480156103ae57600080fd5b506101de6103bd3660046114a9565b6107f2565b60006103cd8261082d565b92915050565b6060600080546103e29061169d565b80601f016020809104026020016040519081016040528092919081815260200182805461040e9061169d565b801561045b5780601f106104305761010080835404028352916020019161045b565b820191906000526020600020905b81548152906001019060200180831161043e57829003601f168201915b5050505050905090565b600061047082610852565b506000828152600460205260409020546001600160a01b03166103cd565b61049982823361088b565b5050565b6001600160a01b0382166104cc57604051633250574960e11b8152600060048201526024015b60405180910390fd5b60006104d9838333610898565b9050836001600160a01b0316816001600160a01b031614610527576040516364283d7b60e01b81526001600160a01b03808616600483015260248201849052821660448201526064016104c3565b50505050565b610535610991565b6007546040516001600160a01b03909116904780156108fc02916000818181858888f1935050505015801561056e573d6000803e3d6000fd5b50565b61058c83838360405180602001604052806000815250610612565b505050565b60006103cd82610852565b60006001600160a01b0382166105c8576040516322718ad960e21b8152600060048201526024016104c3565b506001600160a01b031660009081526003602052604090205490565b6105ec610991565b6105f660006109be565b565b6060600180546103e29061169d565b610499338383610a10565b61061d84848461049d565b6105273385858585610aaf565b60606103cd82610bda565b6103e86008541061067d5760405162461bcd60e51b815260206004820152601260248201527113585e081cdd5c1c1b1e481c995858da195960721b60448201526064016104c3565b66038d7ea4c680003410156106cb5760405162461bcd60e51b8152602060048201526014602482015273125b9cdd59999a58da595b9d081c185e5b595b9d60621b60448201526064016104c3565b6008805490819060006106dd836116ed565b919050555060006106ed82610ceb565b90506106f98383610d68565b61058c8282610d82565b6103e86008541061074b5760405162461bcd60e51b815260206004820152601260248201527113585e081cdd5c1c1b1e481c995858da195960721b60448201526064016104c3565b66038d7ea4c680003410156107995760405162461bcd60e51b8152602060048201526014602482015273125b9cdd59999a58da595b9d081c185e5b595b9d60621b60448201526064016104c3565b6008805490819060006107ab836116ed565b91905055506107ba8382610d68565b61058c8183610d82565b6001600160a01b03918216600090815260056020908152604080832093909416825291909152205460ff1690565b6107fa610991565b6001600160a01b03811661082457604051631e4fbdf760e01b8152600060048201526024016104c3565b61056e816109be565b60006001600160e01b03198216632483248360e11b14806103cd57506103cd82610dd2565b6000818152600260205260408120546001600160a01b0316806103cd57604051637e27328960e01b8152600481018490526024016104c3565b61058c8383836001610e22565b6000828152600260205260408120546001600160a01b03908116908316156108c5576108c5818486610f28565b6001600160a01b03811615610903576108e2600085600080610e22565b6001600160a01b038116600090815260036020526040902080546000190190555b6001600160a01b03851615610932576001600160a01b0385166000908152600360205260409020805460010190555b60008481526002602052604080822080546001600160a01b0319166001600160a01b0389811691821790925591518793918516917fddf252ad1be2c89b69c2b068fc378daa952ba7f163c4a11628f55a4df523b3ef91a4949350505050565b6007546001600160a01b031633146105f65760405163118cdaa760e01b81523360048201526024016104c3565b600780546001600160a01b038381166001600160a01b0319831681179093556040519116919082907f8be0079c531659141344cd1fd0a4f28419497f9722a3daafe3b4186f6b6457e090600090a35050565b6001600160a01b038216610a4257604051630b61174360e31b81526001600160a01b03831660048201526024016104c3565b6001600160a01b03838116600081815260056020908152604080832094871680845294825291829020805460ff191686151590811790915591519182527f17307eab39ab6107e8899845ad3d59bd9653f200f220920489ca2b5937696c31910160405180910390a3505050565b6001600160a01b0383163b15610bd357604051630a85bd0160e11b81526001600160a01b0384169063150b7a0290610af1908890889087908790600401611706565b6020604051808303816000875af1925050508015610b2c575060408051601f3d908101601f19168201909252610b2991810190611743565b60015b610b95573d808015610b5a576040519150601f19603f3d011682016040523d82523d6000602084013e610b5f565b606091505b508051600003610b8d57604051633250574960e11b81526001600160a01b03851660048201526024016104c3565b805160208201fd5b6001600160e01b03198116630a85bd0160e11b14610bd157604051633250574960e11b81526001600160a01b03851660048201526024016104c3565b505b5050505050565b6060610be582610852565b5060008281526006602052604081208054610bff9061169d565b80601f0160208091040260200160405190810160405280929190818152602001828054610c2b9061169d565b8015610c785780601f10610c4d57610100808354040283529160200191610c78565b820191906000526020600020905b815481529060010190602001808311610c5b57829003601f168201915b505050505090506000610c9660408051602081019091526000815290565b90508051600003610ca8575092915050565b815115610cda578082604051602001610cc2929190611760565b60405160208183030381529060405292505050919050565b610ce384610f8c565b949350505050565b606060008242604051602001610d0b929190918252602082015260400190565b6040516020818303038152906040528051906020012060001c9050600060405180606001604052806024815260200161192d60249139905080610d57610d526064856117a5565b611001565b604051602001610cc2929190611760565b61049982826040518060200160405280600081525061112d565b6000828152600660205260409020610d9a82826117ff565b506040518281527ff8e1a15aba9398e019f0b49df1a4fde98ee17ae345cb5f6b5e2c27f5033e8ce79060200160405180910390a15050565b60006001600160e01b031982166380ac58cd60e01b1480610e0357506001600160e01b03198216635b5e139f60e01b145b806103cd57506301ffc9a760e01b6001600160e01b03198316146103cd565b8080610e3657506001600160a01b03821615155b15610ef8576000610e4684610852565b90506001600160a01b03831615801590610e725750826001600160a01b0316816001600160a01b031614155b8015610e855750610e8381846107c4565b155b15610eae5760405163a9fbf51f60e01b81526001600160a01b03841660048201526024016104c3565b8115610ef65783856001600160a01b0316826001600160a01b03167f8c5be1e5ebec7d5bd14f71427d1e84f3dd0314c0f7b2291e5b200ac8c7c3b92560405160405180910390a45b505b5050600090815260046020526040902080546001600160a01b0319166001600160a01b0392909216919091179055565b610f33838383611145565b61058c576001600160a01b038316610f6157604051637e27328960e01b8152600481018290526024016104c3565b60405163177e802f60e01b81526001600160a01b0383166004820152602481018290526044016104c3565b6060610f9782610852565b506000610faf60408051602081019091526000815290565b90506000815111610fcf5760405180602001604052806000815250610ffa565b80610fd9846111a8565b604051602001610fea929190611760565b6040516020818303038152906040525b9392505050565b6060816000036110285750506040805180820190915260018152600360fc1b602082015290565b8160005b8115611052578061103c816116ed565b915061104b9050600a836118bf565b915061102c565b60008167ffffffffffffffff81111561106d5761106d611500565b6040519080825280601f01601f191660200182016040528015611097576020820181803683370190505b509050815b8515611124576110ad6001826118d3565b905060006110bc600a886118bf565b6110c790600a6118e6565b6110d190886118d3565b6110dc9060306118fd565b905060008160f81b9050808484815181106110f9576110f9611916565b60200101906001600160f81b031916908160001a90535061111b600a896118bf565b9750505061109c565b50949350505050565b611137838361123b565b61058c336000858585610aaf565b60006001600160a01b03831615801590610ce35750826001600160a01b0316846001600160a01b0316148061117f575061117f84846107c4565b80610ce35750506000908152600460205260409020546001600160a01b03908116911614919050565b606060006111b5836112a0565b600101905060008167ffffffffffffffff8111156111d5576111d5611500565b6040519080825280601f01601f1916602001820160405280156111ff576020820181803683370190505b5090508181016020015b600019016f181899199a1a9b1b9c1cb0b131b232b360811b600a86061a8153600a850494508461120957509392505050565b6001600160a01b03821661126557604051633250574960e11b8152600060048201526024016104c3565b600061127383836000610898565b90506001600160a01b0381161561058c576040516339e3563760e11b8152600060048201526024016104c3565b60008072184f03e93ff9f4daa797ed6e38ed64bf6a1f0160401b83106112df5772184f03e93ff9f4daa797ed6e38ed64bf6a1f0160401b830492506040015b6d04ee2d6d415b85acef8100000000831061130b576d04ee2d6d415b85acef8100000000830492506020015b662386f26fc10000831061132957662386f26fc10000830492506010015b6305f5e1008310611341576305f5e100830492506008015b612710831061135557612710830492506004015b60648310611367576064830492506002015b600a83106103cd5760010192915050565b6001600160e01b03198116811461056e57600080fd5b6000602082840312156113a057600080fd5b8135610ffa81611378565b60005b838110156113c65781810151838201526020016113ae565b50506000910152565b600081518084526113e78160208601602086016113ab565b601f01601f19169290920160200192915050565b602081526000610ffa60208301846113cf565b60006020828403121561142057600080fd5b5035919050565b80356001600160a01b038116811461143e57600080fd5b919050565b6000806040838503121561145657600080fd5b61145f83611427565b946020939093013593505050565b60008060006060848603121561148257600080fd5b61148b84611427565b925061149960208501611427565b9150604084013590509250925092565b6000602082840312156114bb57600080fd5b610ffa82611427565b600080604083850312156114d757600080fd5b6114e083611427565b9150602083013580151581146114f557600080fd5b809150509250929050565b634e487b7160e01b600052604160045260246000fd5b600067ffffffffffffffff8084111561153157611531611500565b604051601f8501601f19908116603f0116810190828211818310171561155957611559611500565b8160405280935085815286868601111561157257600080fd5b858560208301376000602087830101525050509392505050565b600080600080608085870312156115a257600080fd5b6115ab85611427565b93506115b960208601611427565b925060408501359150606085013567ffffffffffffffff8111156115dc57600080fd5b8501601f810187136115ed57600080fd5b6115fc87823560208401611516565b91505092959194509250565b6000806040838503121561161b57600080fd5b61162483611427565b9150602083013567ffffffffffffffff81111561164057600080fd5b8301601f8101851361165157600080fd5b61166085823560208401611516565b9150509250929050565b6000806040838503121561167d57600080fd5b61168683611427565b915061169460208401611427565b90509250929050565b600181811c908216806116b157607f821691505b6020821081036116d157634e487b7160e01b600052602260045260246000fd5b50919050565b634e487b7160e01b600052601160045260246000fd5b6000600182016116ff576116ff6116d7565b5060010190565b6001600160a01b0385811682528416602082015260408101839052608060608201819052600090611739908301846113cf565b9695505050505050565b60006020828403121561175557600080fd5b8151610ffa81611378565b600083516117728184602088016113ab565b8351908301906117868183602088016113ab565b01949350505050565b634e487b7160e01b600052601260045260246000fd5b6000826117b4576117b461178f565b500690565b601f82111561058c57600081815260208120601f850160051c810160208610156117e05750805b601f850160051c820191505b81811015610bd1578281556001016117ec565b815167ffffffffffffffff81111561181957611819611500565b61182d81611827845461169d565b846117b9565b602080601f831160018114611862576000841561184a5750858301515b600019600386901b1c1916600185901b178555610bd1565b600085815260208120601f198616915b8281101561189157888601518255948401946001909101908401611872565b50858210156118af5787850151600019600388901b60f8161c191681555b5050505050600190811b01905550565b6000826118ce576118ce61178f565b500490565b818103818111156103cd576103cd6116d7565b80820281158282048414176103cd576103cd6116d7565b60ff81811683821601908111156103cd576103cd6116d7565b634e487b7160e01b600052603260045260246000fdfe68747470733a2f2f6170692e72756e64696e6f72756e2e636f6d2f6d657461646174612fa2646970667358221220a38c95bd0c523bac4fa02650b77eac9c272611211b6b5f1bfb9f01527fb5d74864736f6c63430008140033",
  "linkReferences": {},
  "deployedLinkReferences": {}
}