{
  "_format": "hh-sol-artifact-1",
  "contractName": "ContractFactory",
  "sourceName": "contracts/ContractFactory.sol",
  "abi": [
    {
      "inputs": [],
      "stateMutability": "nonpayable",
      "type": "constructor"
    },
    {
      "inputs": [
        {
          "internalType": "address",
          "name": "owner",
          "type": "address"
        }
      ],
      "name": "OwnableInvalidOwner",
      "type": "error"
    },
    {
      "inputs": [
        {
          "internalType": "address",
          "name": "account",
          "type": "address"
        }
      ],
      "name": "OwnableUnauthorizedAccount",
      "type": "error"
    },
    {
      "anonymous": false,
      "inputs": [
        {
          "indexed": true,
          "internalType": "address",
          "name": "contractAddress",
          "type": "address"
        },
        {
          "indexed": false,
          "internalType": "string",
          "name": "contractType",
          "type": "string"
        },
        {
          "indexed": true,
          "internalType": "address",
          "name": "deployer",
          "type": "address"
        },
        {
          "indexed": false,
          "internalType": "uint256",
          "name": "timestamp",
          "type": "uint256"
        }
      ],
      "name": "ContractDeployed",
      "type": "event"
    },
    {
      "anonymous": false,
      "inputs": [
        {
          "indexed": true,
          "internalType": "address",
          "name": "previousOwner",
          "type": "address"
        },
        {
          "indexed": true,
          "internalType": "address",
          "name": "newOwner",
          "type": "address"
        }
      ],
      "name": "OwnershipTransferred",
      "type": "event"
    },
    {
      "inputs": [
        {
          "internalType": "uint256",
          "name": "",
          "type": "uint256"
        }
      ],
      "name": "allContracts",
      "outputs": [
        {
          "internalType": "address",
          "name": "contractAddress",
          "type": "address"
        },
        {
          "internalType": "string",
          "name": "contractType",
          "type": "string"
        },
        {
          "internalType": "address",
          "name": "deployer",
          "type": "address"
        },
        {
          "internalType": "uint256",
          "name": "timestamp",
          "type": "uint256"
        }
      ],
      "stateMutability": "view",
      "type": "function"
    },
    {
      "inputs": [],
      "name": "deployNFT",
      "outputs": [
        {
          "internalType": "address",
          "name": "",
          "type": "address"
        }
      ],
      "stateMutability": "nonpayable",
      "type": "function"
    },
    {
      "inputs": [],
      "name": "deployToken",
      "outputs": [
        {
          "internalType": "address",
          "name": "",
          "type": "address"
        }
      ],
      "stateMutability": "nonpayable",
      "type": "function"
    },
    {
      "inputs": [],
      "name": "getAllContracts",
      "outputs": [
        {
          "components": [
            {
              "internalType": "address",
              "name": "contractAddress",
              "type": "address"
            },
            {
              "internalType": "string",
              "name": "contractType",
              "type": "string"
            },
            {
              "internalType": "address",
              "name": "deployer",
              "type": "address"
            },
            {
              "internalType": "uint256",
              "name": "timestamp",
              "type": "uint256"
            }
          ],
          "internalType": "struct ContractFactory.DeployedContract[]",
          "name": "",
          "type": "tuple[]"
        }
      ],
      "stateMutability": "view",
      "type": "function"
    },
    {
      "inputs": [],
      "name": "getContractCount",
      "outputs": [
        {
          "internalType": "uint256",
          "name": "",
          "type": "uint256"
        }
      ],
      "stateMutability": "view",
      "type": "function"
    },
    {
      "inputs": [
        {
          "internalType": "address",
          "name": "user",
          "type": "address"
        }
      ],
      "name": "getUserContracts",
      "outputs": [
        {
          "components": [
            {
              "internalType": "address",
              "name": "contractAddress",
              "type": "address"
            },
            {
              "internalType": "string",
              "name": "contractType",
              "type": "string"
            },
            {
              "internalType": "address",
              "name": "deployer",
              "type": "address"
            },
            {
              "internalType": "uint256",
              "name": "timestamp",
              "type": "uint256"
            }
          ],
          "internalType": "struct ContractFactory.DeployedContract[]",
          "name": "",
          "type": "tuple[]"
        }
      ],
      "stateMutability": "view",
      "type": "function"
    },
    {
      "inputs": [],
      "name": "owner",
      "outputs": [
        {
          "internalType": "address",
          "name": "",
          "type": "address"
        }
      ],
      "stateMutability": "view",
      "type": "function"
    },
    {
      "inputs": [],
      "name": "renounceOwnership",
      "outputs": [],
      "stateMutability": "nonpayable",
      "type": "function"
    },
    {
      "inputs": [
        {
          "internalType": "address",
          "name": "newOwner",
          "type": "address"
        }
      ],
      "name": "transferOwnership",
      "outputs": [],
      "stateMutability": "nonpayable",
      "type": "function"
    },
    {
      "inputs": [
        {
          "internalType": "address",
          "name": "",
          "type": "address"
        },
        {
          "internalType": "uint256",
          "name": "",
          "type": "uint256"
        }
      ],
      "name": "userContracts",
      "outputs": [
        {
          "internalType": "address",
          "name": "contractAddress",
          "type": "address"
        },
        {
          "internalType": "string",
          "name": "contractType",
          "type": "string"
        },
        {
          "internalType": "address",
          "name": "deployer",
          "type": "address"
        },
        {
          "internalType": "uint256",
          "name": "timestamp",
          "type": "uint256"
        }
      ],
      "stateMutability": "view",
      "type": "function"
    }
  ],
  "bytecode": "0x608060405234801561001057600080fd5b50338061003757604051631e4fbdf760e01b81526000600482015260240160405180910390fd5b61004081610046565b50610096565b600080546001600160a01b038381166001600160a01b0319831681178455604051919092169283917f8be0079c531659141344cd1fd0a4f28419497f9722a3daafe3b4186f6b6457e09190a35050565b613b8e806100a56000396000f3fe60806040523480156200001157600080fd5b5060043610620000ab5760003560e01c80638da5cb5b116200006e5780638da5cb5b14620001225780639399869d1462000134578063b789003d1462000146578063e54e26b9146200016f578063f2fde38b146200018657600080fd5b806318d3ce9614620000b05780631be58e4b14620000d2578063331badd914620000f557806334c925f014620000ff578063715018a61462000116575b600080fd5b620000ba6200019d565b604051620000c9919062000b3f565b60405180910390f35b620000dc620002d1565b6040516001600160a01b039091168152602001620000c9565b620000dc62000529565b620000ba6200011036600462000bfc565b62000781565b62000120620008cb565b005b6000546001600160a01b0316620000dc565b600254604051908152602001620000c9565b6200015d6200015736600462000c21565b620008e3565b604051620000c9949392919062000c4e565b6200015d6200018036600462000c84565b620009d2565b620001206200019736600462000bfc565b62000a14565b60606002805480602002602001604051908101604052809291908181526020016000905b82821015620002c857600084815260209081902060408051608081019091526004850290910180546001600160a01b0316825260018101805492939192918401916200020d9062000c9e565b80601f01602080910402602001604051908101604052809291908181526020018280546200023b9062000c9e565b80156200028c5780601f1062000260576101008083540402835291602001916200028c565b820191906000526020600020905b8154815290600101906020018083116200026e57829003601f168201915b505050918352505060028201546001600160a01b03166020808301919091526003909201546040909101529082526001929092019101620001c1565b50505050905090565b600080604051620002e29062000adb565b604051809103906000f080158015620002ff573d6000803e3d6000fd5b5060405163f2fde38b60e01b81523360048201529091506001600160a01b0382169063f2fde38b90602401600060405180830381600087803b1580156200034557600080fd5b505af11580156200035a573d6000803e3d6000fd5b5050604080516080810182526001600160a01b03858116825282518084018452600381526213919560ea1b602080830191909152808401918252338486018190524260608601526000908152600180835295812080548088018255908252919020845160049092020180546001600160a01b031916919093161782555191945084935091820190620003ed908262000d43565b506040820151600282810180546001600160a01b03199081166001600160a01b0394851617909155606090940151600390930192909255815460018101835560009290925283517f405787fa12a823e0f2b7631cc41b3ba8828b3321ca811111fa75cd3aa3bb5ace60049093029283018054909416911617825560208301518392917f405787fa12a823e0f2b7631cc41b3ba8828b3321ca811111fa75cd3aa3bb5acf01906200049e908262000d43565b506040828101516002830180546001600160a01b0319166001600160a01b039283161790556060938401516003938401558151828152918201929092526213919560ea1b928101929092524260208301523391908416907fe807bc49848fb379b8496168fd00681aa4728a91df227e3f5ddf0d3b6a331858906080015b60405180910390a350919050565b6000806040516200053a9062000ae9565b604051809103906000f08015801562000557573d6000803e3d6000fd5b5060405163f2fde38b60e01b81523360048201529091506001600160a01b0382169063f2fde38b90602401600060405180830381600087803b1580156200059d57600080fd5b505af1158015620005b2573d6000803e3d6000fd5b5050604080516080810182526001600160a01b0385811682528251808401845260058152642a37b5b2b760d91b602080830191909152808401918252338486018190524260608601526000908152600180835295812080548088018255908252919020845160049092020180546001600160a01b03191691909316178255519194508493509182019062000647908262000d43565b506040820151600282810180546001600160a01b03199081166001600160a01b0394851617909155606090940151600390930192909255815460018101835560009290925283517f405787fa12a823e0f2b7631cc41b3ba8828b3321ca811111fa75cd3aa3bb5ace60049093029283018054909416911617825560208301518392917f405787fa12a823e0f2b7631cc41b3ba8828b3321ca811111fa75cd3aa3bb5acf0190620006f8908262000d43565b506040828101516002830180546001600160a01b0319166001600160a01b039283161790556060938401516003909301929092558051818152600591810191909152642a37b5b2b760d91b928101929092524260208301523391908416907fe807bc49848fb379b8496168fd00681aa4728a91df227e3f5ddf0d3b6a331858906080016200051b565b6001600160a01b0381166000908152600160209081526040808320805482518185028101850190935280835260609492939192909184015b82821015620008c057600084815260209081902060408051608081019091526004850290910180546001600160a01b031682526001810180549293919291840191620008059062000c9e565b80601f0160208091040260200160405190810160405280929190818152602001828054620008339062000c9e565b8015620008845780601f10620008585761010080835404028352916020019162000884565b820191906000526020600020905b8154815290600101906020018083116200086657829003601f168201915b505050918352505060028201546001600160a01b03166020808301919091526003909201546040909101529082526001929092019101620007b9565b505050509050919050565b620008d562000a5c565b620008e1600062000a8b565b565b600160205281600052604060002081815481106200090057600080fd5b6000918252602090912060049091020180546001820180546001600160a01b039092169450919250620009339062000c9e565b80601f0160208091040260200160405190810160405280929190818152602001828054620009619062000c9e565b8015620009b25780601f106200098657610100808354040283529160200191620009b2565b820191906000526020600020905b8154815290600101906020018083116200099457829003601f168201915b50505050600283015460039093015491926001600160a01b031691905084565b60028181548110620009e357600080fd5b6000918252602090912060049091020180546001820180546001600160a01b03909216935090620009339062000c9e565b62000a1e62000a5c565b6001600160a01b03811662000a4e57604051631e4fbdf760e01b8152600060048201526024015b60405180910390fd5b62000a598162000a8b565b50565b6000546001600160a01b03163314620008e15760405163118cdaa760e01b815233600482015260240162000a45565b600080546001600160a01b038381166001600160a01b0319831681178455604051919092169283917f8be0079c531659141344cd1fd0a4f28419497f9722a3daafe3b4186f6b6457e09190a35050565b611c148062000e1183390190565b6111348062002a2583390190565b6000815180845260005b8181101562000b1f5760208185018101518683018201520162000b01565b506000602082860101526020601f19601f83011685010191505092915050565b60006020808301818452808551808352604092508286019150828160051b87010184880160005b8381101562000bd157888303603f19018552815180516001600160a01b0390811685528882015160808a8701819052919062000ba58388018262000af7565b848b0151909216878b015250606092830151929095019190915250938601939086019060010162000b66565b509098975050505050505050565b80356001600160a01b038116811462000bf757600080fd5b919050565b60006020828403121562000c0f57600080fd5b62000c1a8262000bdf565b9392505050565b6000806040838503121562000c3557600080fd5b62000c408362000bdf565b946020939093013593505050565b600060018060a01b0380871683526080602084015262000c72608084018762000af7565b94166040830152506060015292915050565b60006020828403121562000c9757600080fd5b5035919050565b600181811c9082168062000cb357607f821691505b60208210810362000cd457634e487b7160e01b600052602260045260246000fd5b50919050565b634e487b7160e01b600052604160045260246000fd5b601f82111562000d3e57600081815260208120601f850160051c8101602086101562000d195750805b601f850160051c820191505b8181101562000d3a5782815560010162000d25565b5050505b505050565b815167ffffffffffffffff81111562000d605762000d6062000cda565b62000d788162000d71845462000c9e565b8462000cf0565b602080601f83116001811462000db0576000841562000d975750858301515b600019600386901b1c1916600185901b17855562000d3a565b600085815260208120601f198616915b8281101562000de15788860151825594840194600190910190840162000dc0565b508582101562000e005787850151600019600388901b60f8161c191681555b5050505050600190811b0190555056fe60806040523480156200001157600080fd5b50336040518060400160405280600e81526020016d149d5b991a5b9bd49d5b8813919560921b8152506040518060400160405280600481526020016344494e4f60e01b8152508160009081620000689190620001b2565b506001620000778282620001b2565b5050506001600160a01b038116620000a957604051631e4fbdf760e01b81526000600482015260240160405180910390fd5b620000b481620000bb565b506200027e565b600780546001600160a01b038381166001600160a01b0319831681179093556040519116919082907f8be0079c531659141344cd1fd0a4f28419497f9722a3daafe3b4186f6b6457e090600090a35050565b634e487b7160e01b600052604160045260246000fd5b600181811c908216806200013857607f821691505b6020821081036200015957634e487b7160e01b600052602260045260246000fd5b50919050565b601f821115620001ad57600081815260208120601f850160051c81016020861015620001885750805b601f850160051c820191505b81811015620001a95782815560010162000194565b5050505b505050565b81516001600160401b03811115620001ce57620001ce6200010d565b620001e681620001df845462000123565b846200015f565b602080601f8311600181146200021e5760008415620002055750858301515b600019600386901b1c1916600185901b178555620001a9565b600085815260208120601f198616915b828110156200024f578886015182559484019460019091019084016200022e565b50858210156200026e5787850151600019600388901b60f8161c191681555b5050505050600190811b01905550565b611986806200028e6000396000f3fe60806040526004361061012a5760003560e01c8063715018a6116100ab578063c002d23d1161006f578063c002d23d14610321578063c87b56dd1461033c578063d1cea4ec1461035c578063d204c45e1461036f578063e985e9c514610382578063f2fde38b146103a257600080fd5b8063715018a6146102995780638da5cb5b146102ae57806395d89b41146102cc578063a22cb465146102e1578063b88d4fde1461030157600080fd5b806332cb6b0c116100f257806332cb6b0c146102005780633ccfd60b1461022457806342842e0e146102395780636352211e1461025957806370a082311461027957600080fd5b806301ffc9a71461012f57806306fdde0314610164578063081812fc14610186578063095ea7b3146101be57806323b872dd146101e0575b600080fd5b34801561013b57600080fd5b5061014f61014a36600461138e565b6103c2565b60405190151581526020015b60405180910390f35b34801561017057600080fd5b506101796103d3565b60405161015b91906113fb565b34801561019257600080fd5b506101a66101a136600461140e565b610465565b6040516001600160a01b03909116815260200161015b565b3480156101ca57600080fd5b506101de6101d9366004611443565b61048e565b005b3480156101ec57600080fd5b506101de6101fb36600461146d565b61049d565b34801561020c57600080fd5b506102166103e881565b60405190815260200161015b565b34801561023057600080fd5b506101de61052d565b34801561024557600080fd5b506101de61025436600461146d565b610571565b34801561026557600080fd5b506101a661027436600461140e565b610591565b34801561028557600080fd5b506102166102943660046114a9565b61059c565b3480156102a557600080fd5b506101de6105e4565b3480156102ba57600080fd5b506007546001600160a01b03166101a6565b3480156102d857600080fd5b506101796105f8565b3480156102ed57600080fd5b506101de6102fc3660046114c4565b610607565b34801561030d57600080fd5b506101de61031c36600461158c565b610612565b34801561032d57600080fd5b5061021666038d7ea4c6800081565b34801561034857600080fd5b5061017961035736600461140e565b61062a565b6101de61036a3660046114a9565b610635565b6101de61037d366004611608565b610703565b34801561038e57600080fd5b5061014f61039d36600461166a565b6107c4565b3480156103ae57600080fd5b506101de6103bd3660046114a9565b6107f2565b60006103cd8261082d565b92915050565b6060600080546103e29061169d565b80601f016020809104026020016040519081016040528092919081815260200182805461040e9061169d565b801561045b5780601f106104305761010080835404028352916020019161045b565b820191906000526020600020905b81548152906001019060200180831161043e57829003601f168201915b5050505050905090565b600061047082610852565b506000828152600460205260409020546001600160a01b03166103cd565b61049982823361088b565b5050565b6001600160a01b0382166104cc57604051633250574960e11b8152600060048201526024015b60405180910390fd5b60006104d9838333610898565b9050836001600160a01b0316816001600160a01b031614610527576040516364283d7b60e01b81526001600160a01b03808616600483015260248201849052821660448201526064016104c3565b50505050565b610535610991565b6007546040516001600160a01b03909116904780156108fc02916000818181858888f1935050505015801561056e573d6000803e3d6000fd5b50565b61058c83838360405180602001604052806000815250610612565b505050565b60006103cd82610852565b60006001600160a01b0382166105c8576040516322718ad960e21b8152600060048201526024016104c3565b506001600160a01b031660009081526003602052604090205490565b6105ec610991565b6105f660006109be565b565b6060600180546103e29061169d565b610499338383610a10565b61061d84848461049d565b6105273385858585610aaf565b60606103cd82610bda565b6103e86008541061067d5760405162461bcd60e51b815260206004820152601260248201527113585e081cdd5c1c1b1e481c995858da195960721b60448201526064016104c3565b66038d7ea4c680003410156106cb5760405162461bcd60e51b8152602060048201526014602482015273125b9cdd59999a58da595b9d081c185e5b595b9d60621b60448201526064016104c3565b6008805490819060006106dd836116ed565b919050555060006106ed82610ceb565b90506106f98383610d68565b61058c8282610d82565b6103e86008541061074b5760405162461bcd60e51b815260206004820152601260248201527113585e081cdd5c1c1b1e481c995858da195960721b60448201526064016104c3565b66038d7ea4c680003410156107995760405162461bcd60e51b8152602060048201526014602482015273125b9cdd59999a58da595b9d081c185e5b595b9d60621b60448201526064016104c3565b6008805490819060006107ab836116ed565b91905055506107ba8382610d68565b61058c8183610d82565b6001600160a01b03918216600090815260056020908152604080832093909416825291909152205460ff1690565b6107fa610991565b6001600160a01b03811661082457604051631e4fbdf760e01b8152600060048201526024016104c3565b61056e816109be565b60006001600160e01b03198216632483248360e11b14806103cd57506103cd82610dd2565b6000818152600260205260408120546001600160a01b0316806103cd57604051637e27328960e01b8152600481018490526024016104c3565b61058c8383836001610e22565b6000828152600260205260408120546001600160a01b03908116908316156108c5576108c5818486610f28565b6001600160a01b03811615610903576108e2600085600080610e22565b6001600160a01b038116600090815260036020526040902080546000190190555b6001600160a01b03851615610932576001600160a01b0385166000908152600360205260409020805460010190555b60008481526002602052604080822080546001600160a01b0319166001600160a01b0389811691821790925591518793918516917fddf252ad1be2c89b69c2b068fc378daa952ba7f163c4a11628f55a4df523b3ef91a4949350505050565b6007546001600160a01b031633146105f65760405163118cdaa760e01b81523360048201526024016104c3565b600780546001600160a01b038381166001600160a01b0319831681179093556040519116919082907f8be0079c531659141344cd1fd0a4f28419497f9722a3daafe3b4186f6b6457e090600090a35050565b6001600160a01b038216610a4257604051630b61174360e31b81526001600160a01b03831660048201526024016104c3565b6001600160a01b03838116600081815260056020908152604080832094871680845294825291829020805460ff191686151590811790915591519182527f17307eab39ab6107e8899845ad3d59bd9653f200f220920489ca2b5937696c31910160405180910390a3505050565b6001600160a01b0383163b15610bd357604051630a85bd0160e11b81526001600160a01b0384169063150b7a0290610af1908890889087908790600401611706565b6020604051808303816000875af1925050508015610b2c575060408051601f3d908101601f19168201909252610b2991810190611743565b60015b610b95573d808015610b5a576040519150601f19603f3d011682016040523d82523d6000602084013e610b5f565b606091505b508051600003610b8d57604051633250574960e11b81526001600160a01b03851660048201526024016104c3565b805160208201fd5b6001600160e01b03198116630a85bd0160e11b14610bd157604051633250574960e11b81526001600160a01b03851660048201526024016104c3565b505b5050505050565b6060610be582610852565b5060008281526006602052604081208054610bff9061169d565b80601f0160208091040260200160405190810160405280929190818152602001828054610c2b9061169d565b8015610c785780601f10610c4d57610100808354040283529160200191610c78565b820191906000526020600020905b815481529060010190602001808311610c5b57829003601f168201915b505050505090506000610c9660408051602081019091526000815290565b90508051600003610ca8575092915050565b815115610cda578082604051602001610cc2929190611760565b60405160208183030381529060405292505050919050565b610ce384610f8c565b949350505050565b606060008242604051602001610d0b929190918252602082015260400190565b6040516020818303038152906040528051906020012060001c9050600060405180606001604052806024815260200161192d60249139905080610d57610d526064856117a5565b611001565b604051602001610cc2929190611760565b61049982826040518060200160405280600081525061112d565b6000828152600660205260409020610d9a82826117ff565b506040518281527ff8e1a15aba9398e019f0b49df1a4fde98ee17ae345cb5f6b5e2c27f5033e8ce79060200160405180910390a15050565b60006001600160e01b031982166380ac58cd60e01b1480610e0357506001600160e01b03198216635b5e139f60e01b145b806103cd57506301ffc9a760e01b6001600160e01b03198316146103cd565b8080610e3657506001600160a01b03821615155b15610ef8576000610e4684610852565b90506001600160a01b03831615801590610e725750826001600160a01b0316816001600160a01b031614155b8015610e855750610e8381846107c4565b155b15610eae5760405163a9fbf51f60e01b81526001600160a01b03841660048201526024016104c3565b8115610ef65783856001600160a01b0316826001600160a01b03167f8c5be1e5ebec7d5bd14f71427d1e84f3dd0314c0f7b2291e5b200ac8c7c3b92560405160405180910390a45b505b5050600090815260046020526040902080546001600160a01b0319166001600160a01b0392909216919091179055565b610f33838383611145565b61058c576001600160a01b038316610f6157604051637e27328960e01b8152600481018290526024016104c3565b60405163177e802f60e01b81526001600160a01b0383166004820152602481018290526044016104c3565b6060610f9782610852565b506000610faf60408051602081019091526000815290565b90506000815111610fcf5760405180602001604052806000815250610ffa565b80610fd9846111a8565b604051602001610fea929190611760565b6040516020818303038152906040525b9392505050565b6060816000036110285750506040805180820190915260018152600360fc1b602082015290565b8160005b8115611052578061103c816116ed565b915061104b9050600a836118bf565b915061102c565b60008167ffffffffffffffff81111561106d5761106d611500565b6040519080825280601f01601f191660200182016040528015611097576020820181803683370190505b509050815b8515611124576110ad6001826118d3565b905060006110bc600a886118bf565b6110c790600a6118e6565b6110d190886118d3565b6110dc9060306118fd565b905060008160f81b9050808484815181106110f9576110f9611916565b60200101906001600160f81b031916908160001a90535061111b600a896118bf565b9750505061109c565b50949350505050565b611137838361123b565b61058c336000858585610aaf565b60006001600160a01b03831615801590610ce35750826001600160a01b0316846001600160a01b0316148061117f575061117f84846107c4565b80610ce35750506000908152600460205260409020546001600160a01b03908116911614919050565b606060006111b5836112a0565b600101905060008167ffffffffffffffff8111156111d5576111d5611500565b6040519080825280601f01601f1916602001820160405280156111ff576020820181803683370190505b5090508181016020015b600019016f181899199a1a9b1b9c1cb0b131b232b360811b600a86061a8153600a850494508461120957509392505050565b6001600160a01b03821661126557604051633250574960e11b8152600060048201526024016104c3565b600061127383836000610898565b90506001600160a01b0381161561058c576040516339e3563760e11b8152600060048201526024016104c3565b60008072184f03e93ff9f4daa797ed6e38ed64bf6a1f0160401b83106112df5772184f03e93ff9f4daa797ed6e38ed64bf6a1f0160401b830492506040015b6d04ee2d6d415b85acef8100000000831061130b576d04ee2d6d415b85acef8100000000830492506020015b662386f26fc10000831061132957662386f26fc10000830492506010015b6305f5e1008310611341576305f5e100830492506008015b612710831061135557612710830492506004015b60648310611367576064830492506002015b600a83106103cd5760010192915050565b6001600160e01b03198116811461056e57600080fd5b6000602082840312156113a057600080fd5b8135610ffa81611378565b60005b838110156113c65781810151838201526020016113ae565b50506000910152565b600081518084526113e78160208601602086016113ab565b601f01601f19169290920160200192915050565b602081526000610ffa60208301846113cf565b60006020828403121561142057600080fd5b5035919050565b80356001600160a01b038116811461143e57600080fd5b919050565b6000806040838503121561145657600080fd5b61145f83611427565b946020939093013593505050565b60008060006060848603121561148257600080fd5b61148b84611427565b925061149960208501611427565b9150604084013590509250925092565b6000602082840312156114bb57600080fd5b610ffa82611427565b600080604083850312156114d757600080fd5b6114e083611427565b9150602083013580151581146114f557600080fd5b809150509250929050565b634e487b7160e01b600052604160045260246000fd5b600067ffffffffffffffff8084111561153157611531611500565b604051601f8501601f19908116603f0116810190828211818310171561155957611559611500565b8160405280935085815286868601111561157257600080fd5b858560208301376000602087830101525050509392505050565b600080600080608085870312156115a257600080fd5b6115ab85611427565b93506115b960208601611427565b925060408501359150606085013567ffffffffffffffff8111156115dc57600080fd5b8501601f810187136115ed57600080fd5b6115fc87823560208401611516565b91505092959194509250565b6000806040838503121561161b57600080fd5b61162483611427565b9150602083013567ffffffffffffffff81111561164057600080fd5b8301601f8101851361165157600080fd5b61166085823560208401611516565b9150509250929050565b6000806040838503121561167d57600080fd5b61168683611427565b915061169460208401611427565b90509250929050565b600181811c908216806116b157607f821691505b6020821081036116d157634e487b7160e01b600052602260045260246000fd5b50919050565b634e487b7160e01b600052601160045260246000fd5b6000600182016116ff576116ff6116d7565b5060010190565b6001600160a01b0385811682528416602082015260408101839052608060608201819052600090611739908301846113cf565b9695505050505050565b60006020828403121561175557600080fd5b8151610ffa81611378565b600083516117728184602088016113ab565b8351908301906117868183602088016113ab565b01949350505050565b634e487b7160e01b600052601260045260246000fd5b6000826117b4576117b461178f565b500690565b601f82111561058c57600081815260208120601f850160051c810160208610156117e05750805b601f850160051c820191505b81811015610bd1578281556001016117ec565b815167ffffffffffffffff81111561181957611819611500565b61182d81611827845461169d565b846117b9565b602080601f831160018114611862576000841561184a5750858301515b600019600386901b1c1916600185901b178555610bd1565b600085815260208120601f198616915b8281101561189157888601518255948401946001909101908401611872565b50858210156118af5787850151600019600388901b60f8161c191681555b5050505050600190811b01905550565b6000826118ce576118ce61178f565b500490565b818103818111156103cd576103cd6116d7565b80820281158282048414176103cd576103cd6116d7565b60ff81811683821601908111156103cd576103cd6116d7565b634e487b7160e01b600052603260045260246000fdfe68747470733a2f2f6170692e72756e64696e6f72756e2e636f6d2f6d657461646174612fa2646970667358221220a38c95bd0c523bac4fa02650b77eac9c272611211b6b5f1bfb9f01527fb5d74864736f6c6343000814003360806040523480156200001157600080fd5b50336040518060400160405280601081526020016f293ab73234b737a93ab7102a37b5b2b760811b8152506040518060400160405280600481526020016344494e4f60e01b81525081600390816200006a91906200033c565b5060046200007982826200033c565b5050506001600160a01b038116620000ac57604051631e4fbdf760e01b8152600060048201526024015b60405180910390fd5b620000b781620000d4565b50620000ce3369021e19e0c9bab240000062000126565b62000430565b600580546001600160a01b038381166001600160a01b0319831681179093556040519116919082907f8be0079c531659141344cd1fd0a4f28419497f9722a3daafe3b4186f6b6457e090600090a35050565b6001600160a01b038216620001525760405163ec442f0560e01b815260006004820152602401620000a3565b620001606000838362000164565b5050565b6001600160a01b0383166200019357806002600082825462000187919062000408565b90915550620002079050565b6001600160a01b03831660009081526020819052604090205481811015620001e85760405163391434e360e21b81526001600160a01b03851660048201526024810182905260448101839052606401620000a3565b6001600160a01b03841660009081526020819052604090209082900390555b6001600160a01b038216620002255760028054829003905562000244565b6001600160a01b03821660009081526020819052604090208054820190555b816001600160a01b0316836001600160a01b03167fddf252ad1be2c89b69c2b068fc378daa952ba7f163c4a11628f55a4df523b3ef836040516200028a91815260200190565b60405180910390a3505050565b634e487b7160e01b600052604160045260246000fd5b600181811c90821680620002c257607f821691505b602082108103620002e357634e487b7160e01b600052602260045260246000fd5b50919050565b601f8211156200033757600081815260208120601f850160051c81016020861015620003125750805b601f850160051c820191505b8181101562000333578281556001016200031e565b5050505b505050565b81516001600160401b0381111562000358576200035862000297565b6200037081620003698454620002ad565b84620002e9565b602080601f831160018114620003a857600084156200038f5750858301515b600019600386901b1c1916600185901b17855562000333565b600085815260208120601f198616915b82811015620003d957888601518255948401946001909101908401620003b8565b5085821015620003f85787850151600019600388901b60f8161c191681555b5050505050600190811b01905550565b808201808211156200042a57634e487b7160e01b600052601160045260246000fd5b92915050565b610cf480620004406000396000f3fe60806040526004361061012a5760003560e01c80635427789c116100ab57806395d89b411161006f57806395d89b411461033a578063a9059cbb1461034f578063b155d7fa1461036f578063c002d23d14610377578063dd62ed3e14610392578063f2fde38b146103d857600080fd5b80635427789c1461028a57806370a08231146102a7578063715018a6146102dd57806379cc6790146102f25780638da5cb5b1461031257600080fd5b806332cb6b0c116100f257806332cb6b0c146101e557806338e21cce146102035780633ccfd60b1461023357806340c10f191461024a57806342966c681461026a57600080fd5b806306fdde031461012f578063095ea7b31461015a57806318160ddd1461018a57806323b872dd146101a9578063313ce567146101c9575b600080fd5b34801561013b57600080fd5b506101446103f8565b6040516101519190610b25565b60405180910390f35b34801561016657600080fd5b5061017a610175366004610b8f565b61048a565b6040519015158152602001610151565b34801561019657600080fd5b506002545b604051908152602001610151565b3480156101b557600080fd5b5061017a6101c4366004610bb9565b6104a4565b3480156101d557600080fd5b5060405160128152602001610151565b3480156101f157600080fd5b5061019b69d3c21bcecceda100000081565b34801561020f57600080fd5b5061017a61021e366004610bf5565b60066020526000908152604090205460ff1681565b34801561023f57600080fd5b506102486104c8565b005b34801561025657600080fd5b50610248610265366004610b8f565b61050c565b34801561027657600080fd5b50610248610285366004610c17565b610589565b34801561029657600080fd5b5061019b68056bc75e2d6310000081565b3480156102b357600080fd5b5061019b6102c2366004610bf5565b6001600160a01b031660009081526020819052604090205490565b3480156102e957600080fd5b50610248610593565b3480156102fe57600080fd5b5061024861030d366004610b8f565b6105a7565b34801561031e57600080fd5b506005546040516001600160a01b039091168152602001610151565b34801561034657600080fd5b506101446105bc565b34801561035b57600080fd5b5061017a61036a366004610b8f565b6105cb565b6102486105d9565b34801561038357600080fd5b5061019b66038d7ea4c6800081565b34801561039e57600080fd5b5061019b6103ad366004610c30565b6001600160a01b03918216600090815260016020908152604080832093909416825291909152205490565b3480156103e457600080fd5b506102486103f3366004610bf5565b610710565b60606003805461040790610c63565b80601f016020809104026020016040519081016040528092919081815260200182805461043390610c63565b80156104805780601f1061045557610100808354040283529160200191610480565b820191906000526020600020905b81548152906001019060200180831161046357829003601f168201915b5050505050905090565b60003361049881858561074b565b60019150505b92915050565b6000336104b285828561075d565b6104bd8585856107dc565b506001949350505050565b6104d061083b565b6005546040516001600160a01b03909116904780156108fc02916000818181858888f19350505050158015610509573d6000803e3d6000fd5b50565b61051461083b565b69d3c21bcecceda10000008161052960025490565b6105339190610c9d565b111561057b5760405162461bcd60e51b815260206004820152601260248201527113585e081cdd5c1c1b1e481c995858da195960721b60448201526064015b60405180910390fd5b6105858282610868565b5050565b610509338261089e565b61059b61083b565b6105a560006108d4565b565b6105b282338361075d565b610585828261089e565b60606004805461040790610c63565b6000336104988185856107dc565b66038d7ea4c680003410156106275760405162461bcd60e51b8152602060048201526014602482015273125b9cdd59999a58da595b9d081c185e5b595b9d60621b6044820152606401610572565b3360009081526006602052604090205460ff16156106785760405162461bcd60e51b815260206004820152600e60248201526d105b1c9958591e481b5a5b9d195960921b6044820152606401610572565b69d3c21bcecceda100000068056bc75e2d6310000061069660025490565b6106a09190610c9d565b11156106e35760405162461bcd60e51b815260206004820152601260248201527113585e081cdd5c1c1b1e481c995858da195960721b6044820152606401610572565b336000818152600660205260409020805460ff191660011790556105a59068056bc75e2d63100000610868565b61071861083b565b6001600160a01b03811661074257604051631e4fbdf760e01b815260006004820152602401610572565b610509816108d4565b6107588383836001610926565b505050565b6001600160a01b038381166000908152600160209081526040808320938616835292905220546000198110156107d657818110156107c757604051637dc7a0d960e11b81526001600160a01b03841660048201526024810182905260448101839052606401610572565b6107d684848484036000610926565b50505050565b6001600160a01b03831661080657604051634b637e8f60e11b815260006004820152602401610572565b6001600160a01b0382166108305760405163ec442f0560e01b815260006004820152602401610572565b6107588383836109fb565b6005546001600160a01b031633146105a55760405163118cdaa760e01b8152336004820152602401610572565b6001600160a01b0382166108925760405163ec442f0560e01b815260006004820152602401610572565b610585600083836109fb565b6001600160a01b0382166108c857604051634b637e8f60e11b815260006004820152602401610572565b610585826000836109fb565b600580546001600160a01b038381166001600160a01b0319831681179093556040519116919082907f8be0079c531659141344cd1fd0a4f28419497f9722a3daafe3b4186f6b6457e090600090a35050565b6001600160a01b0384166109505760405163e602df0560e01b815260006004820152602401610572565b6001600160a01b03831661097a57604051634a1406b160e11b815260006004820152602401610572565b6001600160a01b03808516600090815260016020908152604080832093871683529290522082905580156107d657826001600160a01b0316846001600160a01b03167f8c5be1e5ebec7d5bd14f71427d1e84f3dd0314c0f7b2291e5b200ac8c7c3b925846040516109ed91815260200190565b60405180910390a350505050565b6001600160a01b038316610a26578060026000828254610a1b9190610c9d565b90915550610a989050565b6001600160a01b03831660009081526020819052604090205481811015610a795760405163391434e360e21b81526001600160a01b03851660048201526024810182905260448101839052606401610572565b6001600160a01b03841660009081526020819052604090209082900390555b6001600160a01b038216610ab457600280548290039055610ad3565b6001600160a01b03821660009081526020819052604090208054820190555b816001600160a01b0316836001600160a01b03167fddf252ad1be2c89b69c2b068fc378daa952ba7f163c4a11628f55a4df523b3ef83604051610b1891815260200190565b60405180910390a3505050565b600060208083528351808285015260005b81811015610b5257858101830151858201604001528201610b36565b506000604082860101526040601f19601f8301168501019250505092915050565b80356001600160a01b0381168114610b8a57600080fd5b919050565b60008060408385031215610ba257600080fd5b610bab83610b73565b946020939093013593505050565b600080600060608486031215610bce57600080fd5b610bd784610b73565b9250610be560208501610b73565b9150604084013590509250925092565b600060208284031215610c0757600080fd5b610c1082610b73565b9392505050565b600060208284031215610c2957600080fd5b5035919050565b60008060408385031215610c4357600080fd5b610c4c83610b73565b9150610c5a60208401610b73565b90509250929050565b600181811c90821680610c7757607f821691505b602082108103610c9757634e487b7160e01b600052602260045260246000fd5b50919050565b8082018082111561049e57634e487b7160e01b600052601160045260246000fdfea264697066735822122032a3cff58e4a0778913dcc6e6f49ef2241460a1759779489a4a025782e71cccc64736f6c63430008140033a2646970667358221220c608d7a3ef59576535e3d1e73e30dbf6f9a34f466874270b78727921182517fc64736f6c63430008140033",
  "linkReferences": {},
  "deployedLinkReferences": {}
}